:020000040800F2
:10000000180500200501000817150008FB1200085C
:1000100015150008090300081B190008000000005E
:100020000000000000000000000000005916000859
:100030000B03000800000000191500085B160008FB
:100040001F0100081F0100081F0100081F01000810
:100050001F0100081F0100081F0100081F01000800
:100060001F0100081F0100081F0100081F010008F0
:100070001F0100081F0100081F0100081F010008E0
:100080001F0100081F0100081F0100081F010008D0
:100090001F0100081F0100081F0100081F010008C0
:1000A0001F010008C11600081F0100081F010008F9
:1000B000CD160008D91600081F0100081F0100080E
:1000C0001F0100081F0100081F0100081F01000890
:1000D0001F0100081F0100081F0100081F01000880
:1000E0000D0300081F0100081F010008DFF810D0F1
:1000F00000F0F8F8004800475D190008AFF30080F1
:10010000180500200648804706480047FEE7FEE73E
:10011000FEE7FEE7FEE7FEE7FEE7FEE7FEE7FEE7B7
:10012000BD160008ED000008D2B201E000F8012B76
:10013000491EFBD270470022F6E710B513460A4667
:1001400004461946FFF7F0FF204610BD80EA010281
:1001500010B502F00043400022D04A001FD0010E2B
:1001600001EB1261C0F35600C2F3560240F40000E6
:1001700042F40002A0FB022000047F39140400D0E6
:10018000401C50EA124001D44000491EC2B20C0685
:1001900004EBD010401C4008802A02D003E000206D
:1001A00010BD20F00100002900DA0020184310BD26
:1001B00030B480EA010202F0004530F0004221F044
:1001C000004013D090B1C30DD40DC2F31601C0F39B
:1001D0001600E41A41F4000140F400027D3491421B
:1001E00001D3641C00E04900002C02DA30BC00207E
:1001F00070474FF400000023914201D3891A034352
:1002000040084FEA4101F7D151B1914202D14FF07C
:10021000004105E002D24FF0010101E06FF0010161
:1002200003EBC450284430BC00F025B8420005D090
:10023000C0F3C7525242914201DC0020704700EBEC
:10024000C150704796230022114600F01DB820F0DF
:100250000040C10DC0F3160040F400007F2901DA10
:1002600000207047962903DCC1F19601C840704711
:100270009639884070470029A8BF7047401C490044
:1002800008BF20F00100704710B4B0FA80FC00FAFB
:100290000CF050EA010404BF10BC704749B1CCF126
:1002A000200421FA04F411FA0CF118BF01212143B2
:1002B0000843A3EB0C01CB1D4FEA00614FEA10206D
:1002C00042BF002010BC704700EBC350104400290F
:1002D000A4BF10BC7047401C490008BF20F00100BB
:1002E00010BC7047064C074D06E0E06840F0010383
:1002F00094E8070098471034AC42F6D3FFF7FAFEB3
:10030000B4190008D4190008FEE770474FF4804084
:1003100000F012B810B54FF48041054800F008F91C
:10032000002803D003488168491C816010BD00008B
:10033000000C014000000020044910B50A68024288
:1003400002D00860FFF7E6FF10BD00001404014072
:100350002DE9F84FDFF8B891002409F1040A0AF1F9
:10036000040B23460F270BF1040EC9E00125A5401D
:100370002A40AA427DD1674ED1F804C0ACEB0608F2
:10038000B44532D014DCBCF1030F3AD009DCBCF127
:10039000000F2AD0BCF1010F1CD0BCF1020F31D1EB
:1003A0001DE0BCF1110F17D0BCF1120F2AD119E0DA
:1003B000B8F5881F19D006DCB8F5803F15D0B8F520
:1003C000801F1FD111E0B8F5001F0ED0B8F5041F33
:1003D00018D10AE0CB6815E0CB681B1D12E0CB6892
:1003E00008330FE0CB680C330CE08B682BB1012B8A
:1003F0004FF0080303D0456104E0042302E00561E7
:1004000000E00023FF2A01D8064601E000F10406BF
:100410004FEA840501D9A5F12005D6F8008007FA36
:1004200005FC28EA0C0803FA05F548EA0508C6F8B1
:1004300000804D68ED0062D5374DAE6946F001068B
:10044000AE61AD6924F0030605F001050095334D5A
:1004500006EB050CDCF80850A607360F07FA06F87D
:1004600025EA0805DFF8B880404503D14FF00008C1
:1004700017E044E0DFF8AC80404502D14FF00108BE
:100480000FE0DFF8A480404502D14FF0020808E0F9
:10049000DFF89880404502D14FF0030801E04FF0AB
:1004A000040808FA06F848EA0508CCF808804D6800
:1004B000D9F80060ED034D4601D5164300E09643A0
:1004C0002E604D68DAF80060AD03554601D516433D
:1004D00000E096432E604D68DBF80060ED025D465B
:1004E00001D5164300E096432E604D68DEF80060AB
:1004F000AD02754601D5164300E096432E60641C9C
:100500000D682A46E5407FF431AFBDE8F88F000062
:1005100000040140000011100010024000000140E2
:1005200000080140000C014000100140001401408F
:100530008068084000D001207047000001488068B2
:10054000704700000C0000200248816802781144C6
:10055000816070470C000020074810B5016841F029
:1005600010010160032000F075F8002000F006F88B
:1005700000F024F8002010BD0020024070B50D4DA1
:1005800004464FF47A712878B1FBF0F00A49096803
:10059000B1FBF0F000F0CCFA48B9102C07D20022E1
:1005A0002146501E00F036F800206C6070BD01201E
:1005B00070BD00000C000020180000200C4808B599
:1005C000816941F001018161816901F001010091BE
:1005D000C16941F08051C161C06900F08050009054
:1005E0000448416821F0E06141F00071416008BDBC
:1005F0000010024000000140002809DB00F01F024B
:10060000012191404009800000F1E020C0F8001174
:1006100070470000F0B40E4B1B680C46C3F3022376
:10062000C3F10705042D00D90425191D072901D29E
:10063000002300E0DB1E012606FA05F1491E2140D9
:1006400099409E40761E16403143F0BC01F066B9D9
:100650000CED00E0064900F0070208684FF6FF03C2
:10066000184040EA0220034A104308607047000027
:100670000CED00E00000FA052DE9F0470F460500FB
:1006800061D0434E306800F00700B84209D23068AC
:1006900020F0070038433060306800F00700B842AF
:1006A00051D128683B4C810712D5400703D56068BB
:1006B00040F4E06060602878000703D5606840F48B
:1006C000605060606068A96820F0F00008436060D6
:1006D0002878C00728D06868012810D0216802282F
:1006E00010D0890700292EDA616821F00301014347
:1006F0006160FFF723FF804641F288390DE02168F1
:100700008903EFE78901EDE7FFF718FFA0EB080188
:10071000494502D90320BDE8F0876068696800F0A8
:100720000C00B0EB810FEFD1306800F00700B84249
:100730000BD9306820F0070038433060306800F093
:100740000700B84201D00120E5E72878400705D529
:100750006068E96820F4E06008436060287800077A
:1007600006D56068296920F4605040EAC1006060E5
:1007700000F018F86168084AC1F30311515CC840E1
:100780000649086006480068FFF7F8FE0020C2E747
:100790000020024000100240A419000818000020A8
:1007A0001000002012A185B00FC98DE80F0014A021
:1007B000144A006804905168134801F00C03042B9C
:1007C00010D0082B0ED1C1F38343C9031DF80300D9
:1007D0000AD5516804AAC1F34041515C0A4A50430A
:1007E000B0FBF1F005B0704708494843FAE7000054
:1007F00002030405060708090A0B0C0D0E0F101062
:10080000010200000010024000127A0000093D00C1
:100810002DE9F84F040070D02078C04DC00749D0B2
:100820006868C0F38100012807D06868C0F38100C0
:10083000022809D16868C00306D52868800339D525
:1008400060680028E7D035E06068B0F5803F0BD0E5
:1008500010B1B0F5A02F11D0286820F480302860A6
:10086000286820F4802002E0286840F48030286066
:10087000606890B1FFF762FE06460AE0286840F41F
:1008800080202860F0E700BFFFF758FE801B642837
:1008900073D828688003F7D50CE0FFF74FFE0646B3
:1008A00005E000BFFFF74AFE801B6428F0D82868E7
:1008B0008003F7D420789A4E80074FF001094FF05B
:1008C000000839D5686810F00C0F07D06868C0F3CD
:1008D0008100022809D16868C00306D4286880070F
:1008E00014D52069012808D110E02069B0B1C6F8FC
:1008F0000090FFF723FE074605E00AE1FFF71EFE22
:10090000C01B0228C4D828688007F7D52868616909
:1009100020F0F80040EAC10028600DE0C6F8008031
:10092000FFF70CFE074604E0FFF708FEC01B022895
:1009300023D828688007F7D4207800072CD5794879
:10094000A169D9B1C0F80090FFF7F8FD074604E0AF
:10095000FFF7F4FDC01B02280FD8686A8007F7D59F
:1009600071484FF4FA510068B0FBF1F0009000BFFD
:100970000098411E0091FAD20EE080E0C0F800809D
:10098000FFF7DCFD074604E0FFF7D8FDC01B022897
:1009900075D8686A8007F7D42078400760D5E86981
:1009A0000027C00008D4E86940F08050E861E86999
:1009B000012700F0805000905C480168C90513D4FD
:1009C0000168834641F480710160FFF7B7FD8246FC
:1009D00006E000BFFFF7B2FDA0EB0A0064284ED886
:1009E000DBF80000C005F5D5E06801280AD008B1A1
:1009F000052813D0286A20F001002862286A20F018
:100A0000040002E0286A40F001002862E06841F238
:100A1000883B98B1FFF792FD82460BE0286A40F0D0
:100A200004002862EEE700BFFFF788FDA0EB0A0193
:100A300059455AD8286A8007F6D50CE0FFF77EFDA5
:100A4000824605E0FFF77AFDA0EB0A0159454CD834
:100A5000286A8007F6D41FB1E86920F08050E86169
:100A6000E06988B36968C1F38101022944D0022892
:100A7000C6F8608004D0FFF761FD044638E034E03A
:100A8000FFF75CFD074604E0FFF758FDC01B022896
:100A90002BD828688001F7D4206AB0F5803F05D1B3
:100AA0006868A16820F4003008436860D4E9080150
:100AB0000843696821F4741108436860C6F86090BF
:100AC000FFF73CFD044606E025E000BFFFF736FDDA
:100AD000001B022809D828688001F7D51BE000BF59
:100AE000FFF72CFD001B022802D90320BDE8F88F78
:100AF00028688001F4D40EE00128F7D06868226AE3
:100B000000F48031914204D1616A00F4701088428F
:100B100001D00120EAE70020E8E7000000100240D1
:100B20000000424280044242180000200070004051
:100B300010B5401EB0F1807F01D3012010BD4FF0F1
:100B4000E02460610F21601700F0E8FE0020A06142
:100B500007202061002010BD7047704710B590F845
:100B60003C20012A22D0012280F83C20CA688C68EF
:100B700022F4407222434C6822F4806222430C68C3
:100B800022F4006222430C6922F4805222434C6911
:100B900022F400522243C969002322F480420A430E
:100BA00001684A6480F83C30002010BD022010BD6E
:100BB00070B590F83C20012A26D0012480F83C40F2
:100BC000022280F83D2003685A689D6822F0700672
:100BD0000A6832435A600D4B02689A4208D0B2F15B
:100BE000804F05D00A4B9A4202D00A4B9A4204D158
:100BF000496825F080031943916080F83D40002149
:100C000080F83C10084670BD022070BD002C0140E9
:100C1000000400400008004010B5040003D094F820
:100C20003D0010B107E0012010BD002084F83C0019
:100C3000204600F01FF8022084F83D00211D2068A6
:100C400000F050FD012084F8460084F83E0084F84E
:100C50003F0084F8400084F8410084F8420084F8A2
:100C6000430084F8440084F8450084F83D000020E7
:100C700010BD000008B5154A0168154891420ED113
:100C8000816941F4006181618069002200F40060A3
:100C9000009011461920FFF7BDFC192010E0B1F1BA
:100CA000804F11D1C16941F00101C161C0690022C9
:100CB00000F00100009011461C20FFF7ABFC1C2047
:100CC000BDE80840FFF798BC08BD0000002C0140BB
:100CD0000010024090F83D10012901D0012070471A
:100CE000022180F83D100168CA6842F00102CA6022
:100CF00000680B49884208D0B0F1804F05D00949FF
:100D0000884202D00849884204D1816801F0070175
:100D1000062903D0016841F00101016000207047FD
:100D2000002C0140000400400008004070B504465B
:100D300090F83C00012817D0012584F83C5002208F
:100D400084F83D002068826822F0770222F47F4216
:100D500082600868502830D00DDC20284DD005DC9A
:100D600098B310283BD148E0022070BD302844D011
:100D7000402834D139E0602828D0702806D0B0F55A
:100D8000805F2CD0B0F5005F29D10AE0CB68D1E9B3
:100D90000121206800F0E9FC2068816841F07701BA
:100DA00009E0CB68D1E90121206800F0DEFC206871
:100DB000816841F48041816011E0CA684968206817
:100DC00000F088FD5021206807E016E0CA684968F5
:100DD000206800F090FD6021206800F0D0FC84F8CD
:100DE0003D50002084F83C0070BDCA684968206806
:100DF00000F070FD40212068EFE7226801461046B0
:100E0000EBE72DE9F0410D46040003D094F83D00D6
:100E100018B108E00120BDE8F081002084F83C0012
:100E2000204600F041F8022084F83D0020688168E7
:100E300044F2070291438160211D206800F052FCBA
:100E4000226890689169166A2B68AF69034340F283
:100E50000330814341EA0721A868EF6908434FF650
:100E6000FC418843E96840EA0720014328692F6A6A
:100E7000000140EA0730084369686D6926F02206E0
:100E800046EA0515294393602268906154F8460BA1
:100E90000162012004F81F09E0752076E0762077D2
:100EA000A0750020B7E7000000B585B000210091D3
:100EB0000191029103910068114988421ED11148A5
:100EC000C16941F00201C161C16901F002010491EF
:100ED000816941F0040181618069694600F0040084
:100EE0000490C02000900848FFF732FA0022012148
:100EF0001D20FFF78FFB1D20FFF77EFB05B000BD17
:100F0000000400400010024000080140006804494D
:100F1000884203D103484168491C41607047000082
:100F2000000400400000002070B50446006801691C
:100F30004FF00005C943890715D4C168C943890723
:100F400011D4E91E016101202077206880698007A3
:100F5000204602D0FFF7DAFF04E000F0BFF8204699
:100F600000F04EF9257720680169C943490717D475
:100F7000C168C943490713D46FF00401016102201D
:100F800020772068806910F4407F204602D0FFF768
:100F9000BDFF04E000F0A2F8204600F031F925770B
:100FA00020680169C943090716D4C168C943090704
:100FB00012D46FF008010161042020772068C06915
:100FC0008007204602D0FFF7A1FF04E000F086F87A
:100FD000204600F015F9257720680169C943C90644
:100FE00017D4C168C943C90613D46FF01001016159
:100FF000082020772068C06910F4407F204602D086
:10100000FFF784FF04E000F069F8204600F0F8F8EC
:10101000257720680169C943C90708D1C168C94358
:10102000C90704D1891E0161204600F04DF92068EE
:101030000169C943090609D4C168C943090605D431
:101040006FF0800101612046FFF786FD206801698D
:10105000C943490609D4C168C943490605D46FF09C
:1010600040010161204600F047F920680169C94349
:1010700089060BD4C168C943890607D46FF02001E3
:1010800001612046BDE87040FFF767BD70BD0000FC
:1010900000B585B000210091019102910391006893
:1010A0000B49884212D10B48816941F004018161EA
:1010B0008069694600F0040004904FF4407000908D
:1010C0000220019003900448FFF742F905B000BDEB
:1010D000002C01400010024000080140704770B52C
:1010E000044690F83C000D4601280AD0012084F8FF
:1010F0003C0042B1042A18D0082A2AD00C2A4DD12B
:1011000039E0022070BD206800F042FB2068816950
:1011100041F0080181612068816921F00401816149
:10112000206881692A69114311E0206800F058FBAA
:101130002068816941F4006181612068816921F43E
:1011400080618161206881692A6941EA02218161A7
:1011500024E0206800F070FB2068C16941F00801BC
:10116000C1612068C16921F00401C1612068C169C1
:101170002A69114311E0206800F08AFB2068C169E8
:1011800041F40061C1612068C16921F48061C161DD
:101190002068C1692A6941EA0221C161002084F8FE
:1011A0003C0070BD10B5040003D094F83D0010B1B0
:1011B00007E0012010BD002084F83C00204600F02C
:1011C0001EF8022084F83D00211D206800F08AFAF4
:1011D000012084F8460084F83E0084F83F0084F83B
:1011E000400084F8410084F8420084F8430084F809
:1011F000440084F8450084F83D00002010BD70478D
:101200007047000010B50446022249B1042912D0EB
:1012100008291CD094F84100012823D0012010BDDA
:1012200094F83E000128F9D184F83E202068C26875
:1012300042F0020209E094F83F000128EED184F860
:101240003F202068C26842F00402C2600EE094F8B9
:1012500040000128E2D184F840202068C26842F0B2
:101260000802F2E784F841200C2922D001222068EC
:1012700000F06EFA11492068884203D1426C42F4B2
:10128000004242642068884208D0B0F1804F05D007
:101290000B49884202D00B49884204D1816801F091
:1012A0000701062903D0016841F001010160002017
:1012B00010BD2068C26842F01002C6E7002C014051
:1012C00000040040000800400068B0F1804F0FD1DA
:1012D00008484188491C41808188491C8180418996
:1012E000491C41810188491C01800189491C0181F7
:1012F00070470000000100207047FEE700B585B090
:10130000002003901648816941F0200181618169C4
:1013100001F020010491816941F00401816181693A
:1013200001F004010491816941F008018161806943
:10133000694600F0080004904FF48040009009488E
:101340000190022002900848FFF702F8002211469F
:101350002820FFF75FF92820FFF74EF905B000BD00
:101360000010024000001110000C014010B596B0B2
:1013700000240F9410941194129413941C21684625
:101380001494FEF7D8FE202107A8FEF7D4FE2C48BF
:101390002A4901604721C0E9011440F2E731C0E960
:1013A000031444618461FFF737FC08B172B6FEE7AD
:1013B0004FF480500F900FA92148FFF7B7FC08B1F8
:1013C00072B6FEE71E48FFF7EDFE08B172B6FEE703
:1013D000139413A91A481494FFF7EAFB08B172B6E4
:1013E000FEE76020CDE90004029403940494059480
:1013F0000022694612480694FFF771FE08B172B6E2
:10140000FEE7042269460E48FFF769FE08B172B68E
:10141000FEE70794089409944FF400500A94CDE92C
:101420000B4007A906480E94FFF798FB08B172B667
:10143000FEE70348FFF72CFE16B010BD002C01405C
:101440001C00002010B586B00024164800940194BA
:101450000294039404944FF0804105940160492163
:10146000C0E9011440F2E731C0E903148461FFF7D9
:10147000D3FB08B172B6FEE74FF480500090694686
:101480000848FFF753FC08B172B6FEE7049404A9BC
:1014900004480594FFF78CFB002801D072B6FEE7E4
:1014A00006B010BD6400002010B58CB02421684641
:1014B000FEF741FE00241648099414490A94C0E935
:1014C00000144FF6FF71C0E90241046184610320FA
:1014D000CDE900040120CDE902040A210491CDE9FF
:1014E0000540CDE9074169460948FFF78AFC08B184
:1014F00072B6FEE7099409A905480A94FFF758FB5C
:10150000002801D072B6FEE70CB010BD0004004008
:10151000AC000020FEE7FEE7704700002DE9F05F19
:10152000484BD3F800C04A4E484DA6F10C02DFF8F4
:101530001481DFF814B111880024AF684FF4FA7EEB
:101540006FF0090AA2F10C0008F124084FF001091C
:10155000BCF1010F3FD01B68112B3AD180F80490E9
:10156000D8F800304FF6FF7CACEB03030360714505
:101570002FD3C8F800C01846FEF764FE5146FEF7A8
:1015800055FE0121FEF752FE5946FEF7DFFD4FEAF8
:1015900008584146FEF70CFEA6F11801886038464F
:1015A000FEF750FE5146FEF741FE0121FEF73EFEDA
:1015B0005946FEF7CBFD4146FEF7FAFDFEF747FE22
:1015C000C5E90004A6F10C00AC600480347086F814
:1015D0000190BDE8F09F0471D8F8003003607145B8
:1015E000F7D3C8F800401846FEF72CFE5146FEF728
:1015F0001DFE0121FEF71AFE5946FEF7A7FDDFF892
:1016000054804146FEF7D4FD1149183988603846A8
:10161000FEF718FE5146FEF709FE0121FEF706FE11
:101620005946FEF793FD4146FEF7C2FDFEF70FFE59
:10163000C5E900040648AC600C38048086F80090C8
:101640007470C6E7000400400000704200000020F3
:101650000C010020000040427047FEF775BF30B516
:101660008FB028216846FEF766FD14210AA8FEF710
:1016700062FD01210804CDE9001000240294022536
:101680000491CDE907504FF4E01009906846FFF748
:10169000BFF808B172B6FEE70F20CDE90A054FF496
:1016A0008060CDE90C4002210AA80E94FEF7E4FF09
:1016B000002801D072B6FEE70FB030BD70470000C1
:1016C0000148FFF731BC00001C0000200148FFF773
:1016D0002BBC0000640000200148FFF725BC00007F
:1016E000AC000020F0B50268164B174C174D4FF0B8
:1016F0008047984205D0B84203D0A04201D0A8420A
:1017000003D122F070064A683243984205D0B842AD
:1017100003D0A04201D0A84203D122F44074CA6889
:1017200022434C6922F08002224302608A68C2622E
:101730000A688262984201D109690163012141610D
:10174000F0BD0000002C01400004004000080040F3
:1017500010B501F01F030121046A99408C43046213
:10176000016A9A401143016210BD10B5846842EAD3
:10177000032224F47F440A432243826010BD82681E
:1017800022F070020A4342F00701816070470000B6
:1017900030B5026A22F001020262026A436884697B
:1017A00024F073050C682C4322F002058A682A4352
:1017B0000A4DA8420BD122F00805CA6823F44073F1
:1017C0002A434D6922F004021D438B692B43436079
:1017D000846149684163026230BD0000002C014011
:1017E00030B5026A22F010020262026A436884691C
:1017F0000D6824F4E64444EA05248D6822F02002B2
:1018000042EA05120B4DA8420ED1CD6822F08002AB
:1018100042EA05124D6923F4406343EA85038D696A
:1018200022F0400243EA8503436084614968816392
:10183000026230BD002C014030B5026A22F4807291
:101840000262036A4268C46923F4007324F07305DA
:101850000C682C438D6843EA05230C4DA8420ED139
:10186000CD6823F4006343EA05234D6922F4405216
:1018700042EA05128D6923F4806342EA0512426050
:10188000C4614968C163036230BD0000002C01409F
:1018900030B5026A22F480520262046A4268C36967
:1018A0000D6823F4E64343EA05238D6824F40054CD
:1018B00044EA0534064DA84204D14D6922F4804221
:1018C00042EA85124260C36149680164046230BD26
:1018D000002C014010B5036A046A24F0010404627C
:1018E000846924F0F00444EA021423F00A020A4353
:1018F0008461026210BD10B5036A23F01003036215
:101900008369046A23F4704343EA023224F0A0039B
:1019100043EA01118261016210BDFEE70907090E69
:10192000002804DB00F1E02080F80014704700F08C
:101930000F0000F1E02080F8141D704702E008C895
:10194000121F08C1002AFAD170477047002001E039
:1019500001C1121F002AFBD170470000FEF7FCFDF9
:10196000FFF77DFEFFF7CAFCFFF76CFDFFF79CFD5C
:10197000FFF7FCFC0A48FFF7ADF909480021483899
:10198000FFF740FC064804214838FFF73BFC044CB5
:10199000483CC72520688563FFF7C0FDFAE70000D3
:1019A00064000020000000000000000001020304A9
:1019B00006070809D4190008000000201C000000D8
:1019C0003C190008F01900081C000020FC0400006D
:1019D0004C1900080000000000000000000000009A
:1019E0000100000010000000000000000024F400CE
:04000005080000ED02
:00000001FF
